:020000040000FA
:100000000C9473010C94A4010C94A4010C94A4010D
:100010000C94A4010C94A4010C94A4010C94A401CC
:100020000C94A4010C94A4010C94A4010C94A401BC
:100030000C94A4010C94A4010C94A4010C94A401AC
:100040000C94A4010C94130E0C94A4010C94A40120
:100050000C94A4010C94A4010C94A4010C941B0C0A
:100060000C94A4010C94E50B0C94BB0B0C94A40110
:100070000C94A4010C94A4010C94A4010C94A4016C
:100080000C94E50D0C94A4010C94A4010C94A4010F
:100090000C94A4010C94A4010C94A4010C94650C80
:1000A0000C94A4010C94A4010C94B70D0C94A4011D
:1000B0000C94A4010C94A4010C94A4010C94890D3B
:1000C0000C94A4010C94A4010C94A4010C94A4011C
:1000D0000C94A4010C94A4010C94A4010C94A4010C
:1000E0000C94A4010C949A030C94C6070C941B0462
:1000F0000C947B040C9407030C9432040C940F04AE
:100100000C94EF070C944A040C94AC050C94130562
:100110000C9428040C944A050C944E040C94E402AC
:100120000C94410E0C94B6020C941C080C942404FC
:100130000C9440040C94C5070C9449040C942705B6
:100140000C9415030C94EF040C94D6040C94400505
:100150000C944D030C9409050C9436040C9417046C
:100160000C94DB040C9413040C9432090C94F302E9
:100170000C9436050C94AC040C9409040C94D10432
:100180000C94D5070C94930A0C9468050C94B50252
:100190000C943C040C942E040C94B7020C94E807C5
:1001A0000C945E070C94E5040C9454050C944404E0
:1001B0000C9401050C945E050C941E040C941D0512
:1001C0000C94F90400002100240027002A002D00CF
:1001D0003000330001010000040107010A010000A2
:1001E0002200250028002B002E00310034000201DF
:1001F0000000050108010B0100002000230026007B
:1002000029002C002F00320000010000030106012C
:10021000090105050505070508080808020202028C
:100220000A0A080804040404010101010101010192
:100230000303030303030303040707070C0C0C0C5D
:100240000C0C0C0C02020202060606060606060646
:100250000B0B0B0B0B0B0B0B0102102020080810D3
:100260002040102040800201020108040201010226
:1002700004081020408080402010080402018004FF
:10028000020180402010080402010804020101025A
:100290000408102040800102040810204080000063
:1002A0000A0B02090C0D0E080703040100000000F0
:1002B000000000000000000000000000000000003E
:1002C00000000000000000000000121110000000FB
:1002D000000000000000000000000000000000001E
:1002E00000000000410E11241FBECFEFD1E2DEBF9F
:1002F000CDBF00E00CBF13E0A0E0B2E0EAEBF3E317
:1003000000E00BBF02C007900D92AC35B107D9F7E2
:1003100025E0ACE5B3E001C01D92A33FB207E1F7D1
:1003200011E0C3E7D1E000E006C021970109802F6A
:10033000FE010E94B417C237D10780E00807A9F771
:100340000E94110F0C94DB190C940000CF92DF92E5
:10035000EF92FF92DC01A03282E0B807D4F5A53B12
:10036000B10514F0A4EBB0E04091ED0528E830E0D1
:10037000241B310947FD3395220F331F220F331FF2
:100380006901330FEE08FF084091EE0528E532E0E1
:10039000241B310947FD3395220F331F220F331FD2
:1003A000032E000C440B550B2C193D094E095F0917
:1003B000B7FF02C0B0E0A0E00E94501624EB30E08E
:1003C00040E050E00E942616C20ED31EE41EF51E29
:1003D000D601E091EC05E03380F52091ED0588E849
:1003E00090E0821B910927FD9395880F991F880F34
:1003F000991FA817B90784F02091EE0588E592E0CF
:10040000821B910927FD9395880F991F880F991FCB
:10041000A817B9070CF4CD010297880F991F4FB7A1
:10042000F8942E2F30E0F901EE0FFF1FE20FF31FBB
:10043000E052FB4F928381834FBFFF90EF90DF909C
:10044000CF90089596E0899FD0011124AF58BA4FFC
:1004500090967C936E935F9791E091969C93919781
:10046000E091DE05F091DF059091DD05992339F0EB
:10047000309751F0811108C080918D051994309703
:1004800019F05C968C91FACF0895CF92DF92EF929B
:10049000FF920F931F9396E0899FF0011124EF586C
:1004A000FA4F11A2278D30A12130310551F178F09A
:1004B0002230310509F451C02330310509F452C00E
:1004C0001F910F91FF90EF90DF90CF9008956623DA
:1004D000B9F361E070E00E9422022FB7F894809196
:1004E000330490913404A0913504B09136042FBFA9
:1004F0008093C9059093CA05A093CB05B093CC0512
:10050000DFCF9FB7F894C0903304D0903404E090CC
:100510003504F09036049FBF0091C9051091CA05BB
:100520002091CB053091CC05C01AD10AE20AF30A1A
:100530000091DB051091DC0530E020E00C151D0575
:100540002E053F0550F462E070E01F910F91FF907F
:10055000EF90DF90CF900C9422026111B1CF63E055
:1005600070E0F3CF70E060E0F0CF08950895AF92AF
:10057000BF92CF92DF92EF92FF920F931F93CF9390
:10058000DF936C017B018B01040F151FEB015E01F2
:10059000AE18BF08C017D10759F06991D601ED9187
:1005A000FC910190F081E02DC6011995892B79F716
:1005B000C501DF91CF911F910F91FF90EF90DF90D8
:1005C000CF90BF90AF900895FC01538D448D252F9F
:1005D00030E0842F90E0821B930B541710F0CF96DD
:1005E000089501970895FC01918D828D981761F00F
:1005F000A28DAE0FBF2FB11D5D968C91928D9F5F26
:100600009F73928F90E008958FEF9FEF0895FC0104
:10061000918D828D981731F0828DE80FF11D858DB7
:1006200090E008958FEF9FEF0895FC01918D228D4A
:10063000892F90E0805C9F4F821B91098F739927CF
:10064000089587E394E00E94150321E0892B09F4C3
:1006500020E0822F0895FC01A48DA80FB92FB11DB1
:10066000A35ABF4F2C91848D90E001968F739927E8
:10067000848FA689B7892C93A089B1898C918370C6
:1006800080648C93938D848D981306C00288F389BF
:10069000E02D80818F7D80830895EF92FF920F93EC
:1006A0001F93CF93DF93EC0181E0888F9B8D8C8D1E
:1006B00098131AC0E889F989808185FF15C09FB712
:1006C000F894EE89FF896083E889F98980818370D5
:1006D000806480839FBF81E090E0DF91CF911F9184
:1006E0000F91FF90EF900895F62E0B8D10E00F5FA5
:1006F0001F4F0F731127E02E8C8D8E110CC00FB67B
:1007000007FCFACFE889F989808185FFF5CFCE0112
:100710000E942B03F1CFEB8DEC0FFD2FF11DE35A5F
:10072000FF4FF0829FB7F8940B8FEA89FB89808195
:100730008062CFCFCF93DF93EC01888D8823B9F00F
:10074000AA89BB89E889F9898C9185FD03C08081DC
:1007500086FD0DC00FB607FCF7CF8C9185FFF2CF59
:10076000808185FFEDCFCE010E942B03E9CFDF9181
:10077000CF91089580E090E0892B29F00E94210319
:1007800081110E94000080E090E0892B49F080E018
:1007900090E0892B29F00E94000081110E94000046
:1007A00080E090E0892B49F080E090E0892B29F0EF
:1007B0000E94000081110E94000080E090E0892BDF
:1007C00049F080E090E0892B29F00E94000081111F
:1007D0000C94000008958150823108F05AC0E82F2F
:1007E000F0E08827E950FC4F8F4F0C94B4171704A2
:1007F0001B0409040F04130449041E0424042804E0
:100800002E04320436043C044004490444044A04DF
:100810004E04809180008F778093800008958091AE
:1008200080008F7DF9CF80918000877FF5CF84B5E0
:100830008F7784BD089584B58F7DFBCF8091B00004
:100840008F778093B00008958091B0008F7DF9CFAD
:10085000809190008F778093900008958091900010
:100860008F7DF9CF80919000877FF5CF8091A00098
:100870008F778093A00008958091A0008F7DF9CF9D
:100880008091A000877FF5CF809120018F778093A2
:1008900020010895809120018F7DF9CF8091200162
:1008A000877FF5CFCF93DF93282F30E0F901E25611
:1008B000FD4F8491F901E85AFD4FD491F901EE5EA4
:1008C000FD4FC491CC23A1F081110E94EB03EC2FCA
:1008D000F0E0EE0FFF1FE850FE4FA591B491EC91B0
:1008E000ED2381E090E009F480E0DF91CF9108955D
:1008F00080E090E0FACF862F0C9452041F93CF93A0
:10090000DF93282F30E0F901E256FD4F8491F90181
:10091000E85AFD4FD491F901EE5EFD4FC491CC230E
:10092000A9F0162F81110E94EB03EC2FF0E0EE0FDF
:10093000FF1FE252FE4FA591B4918FB7F894EC914E
:10094000111108C0D095DE23DC938FBFDF91CF91CA
:100950001F910895DE2BF8CF862F642F0C947E0410
:100960009C01E7EAF2E0E491E150E23108F0B0C026
:10097000F0E08827E154FB4F8F4F0C94B417D1045B
:10098000D604DB04E504EF046805F9040105090554
:1009900013051D0527053605400568054A0554055C
:1009A0005E0584B5806884BD27BD089584B58062E6
:1009B00084BD28BD08958091800080688093800068
:1009C0003093890020938800089580918000806290
:1009D0008093800030938B0020938A00089580914B
:1009E000800088608093800030938D0020938C007D
:1009F00008958091B00080688093B0002093B30088
:100A000008958091B00080628093B0002093B4007C
:100A100008958091900080688093900030939900B1
:100A200020939800089580919000806280939000B8
:100A300030939B0020939A000895809190008860E5
:100A40008093900030939D0020939C0008958091A6
:100A5000A00080688093A0008091A0008F7B80938D
:100A6000A0003093A9002093A80008958091A000D1
:100A700080628093A0003093AB002093AA00089579
:100A80008091A00088608093A0003093AD002093F7
:100A9000AC000895809120018068809320013093FC
:100AA000290120932801089580912001806280937C
:100AB000200130932B0120932A0108958091200179
:100AC00088608093200130932D0120932C0108959C
:100AD00060E0203831050CF061E089E00C947E0480
:100AE000CF93DF9390E0FC01E85AFD4F24918E5E96
:100AF0009D4FFC0184918823C9F090E0880F991FD5
:100B0000FC01EC53FE4FA591B491FC01E252FE4F63
:100B1000C591D49161110DC09FB7F8948C91209527
:100B200082238C938881282328839FBFDF91CF91D4
:100B30000895623051F49FB7F8943C91822F8095CC
:100B400083238C93E8812E2BEFCF8FB7F894EC9111
:100B50002E2B2C938FBFEACF862F642F0C94700519
:100B60006F927F928F929F92AF92BF92CF92DF92BD
:100B7000EF92FF920F931F93CF93DF9381E08093C7
:100B8000DD058FB7F894409133045091340460919F
:100B90003504709136048FBF8091CD059091CE05BC
:100BA000A091CF05B091D005481B590B6A0B7B0B68
:100BB0008091D9059091DA05B0E0A0E084179507FF
:100BC000A607B70708F01DC1C0E08091D705C81778
:100BD00060F4E091D305F091D405EC0FF11D62E0D3
:100BE00080810E947005CF5FF0CF712C812C912CF9
:100BF000540183948091D805781608F05FC0072DC2
:100C000010E0E091D505F091D605E00FF11F61E00D
:100C100080810E947005E091D505F091D605E00F26
:100C2000F11F60E080810E947E04D501C401072C81
:100C300004C0880F991FAA1FBB1F0A94D2F76C012A
:100C40007C01E094F094612C8091D7056816F8F44B
:100C5000C62DD0E0E091D305F091D405EC0FFD1F37
:100C600080810E9452042496CC0FDD1FCF58DA4FAA
:100C7000892B41F4888199818C299D2999838883C6
:100C80006394E2CF888199818E219F21F7CFE091F3
:100C9000D505F091D605E00FF11F61E080810E943B
:100CA0007E048091D5059091D605080F191F60E04C
:100CB000F80180810E94700573949CCFC1E7D5E054
:100CC000FE018FEF9FEF278D30A1232B21F4148E8F
:100CD000968F858F11A2369625E0ED3AF20799F7A7
:100CE000F12C96E0D92E8091D705F81608F050C067
:100CF000E12C0F2D10E0000F111F07581A4F209103
:100D0000D805E21608F042C0F801608171810E2C0E
:100D100002C0769567950A94E2F7F29E900111243D
:100D20002E0D311DE1E7F5E080E0458D568D24174D
:100D3000350709F46AC08F5F36968A30B1F760FFD5
:100D400023C0E1E7F5E090E080E0448D411117C059
:100D5000E091D105F091D205E20FF31F4081D89EBA
:100D6000F001D99EF00D1124EF58FA4F448F368FC1
:100D7000258F10A2178E61E00E94450205C00196E2
:100D800036968A30910509F7E394B9CFF394ABCF47
:100D900080E099A19111892F2696F5E0CD3ADF07E1
:100DA000C1F79FB7F8944091330450913404609197
:100DB0003504709136049FBF4093CD055093CE0506
:100DC0006093CF057093D0058823D9F08091920568
:100DD0008823B9F08091900590919105019789F44D
:100DE00080918D05DF91CF911F910F91FF90EF9032
:100DF000DF90CF90BF90AF909F908F907F906F903B
:100E000008951092DD0580E0EDCF6170B5CF3FB75A
:100E1000F8948091130490911404A0911504B0915A
:100E2000160426B5A89B05C02F3F19F00196A11DF9
:100E3000B11D3FBFBA2FA92F982F8827BC01CD0124
:100E4000620F711D811D911D42E0660F771F881F83
:100E5000991F4A95D1F708958F929F92AF92BF92B2
:100E6000CF92DF92EF92FF924B015C010E94070745
:100E70006B017C010E9407076C197D098E099F098F
:100E8000683E734081059105A8F321E0821A91081C
:100E9000A108B10888EEC80E83E0D81EE11CF11C41
:100EA00081149104A104B10429F7FF90EF90DF9021
:100EB000CF90BF90AF909F908F900895089520910C
:100EC000A103260F3327331F21323105ECF4209183
:100ED000EA03FC0190E080E0243069F082E00895AC
:100EE000A091A1032191AC014F575C4FA40FB52FE6
:100EF000B11D2C930196861798F38091A103680F7A
:100F00006093A10380E0089581E008951092EA03C0
:100F100081E08093E9031092C40361E084E10E94C0
:100F20007E0461E085E10E947E04E9EBF0E08081CF
:100F30008E7F808380818D7F808388E48093B8005A
:100F400085E48093BC000895CF93DF9391E0909364
:100F500080038823B9F0C091B800D091BA00809185
:100F6000BC008A7B8093BC0060E084E10E947E0428
:100F700060E085E10E947E040E948607D093BA005B
:100F8000C093B800DF91CF9108950895E0911E04B9
:100F900080911D04E81730F4F0E0E05AFC4F8081A6
:100FA00090E008958FEF9FEF089590911E04809137
:100FB0001D042FEF3FEF981748F4E92FF0E0E05AB7
:100FC000FC4F208130E09F5F90931E04C90108957B
:100FD00080911D0490911E04891B990B0895CF9256
:100FE000DF92EF92FF920F931F93CF93DF937C01D9
:100FF000CB018A012091F003222389F0EB016B01E0
:10100000C40ED51ECC15DD0569F06991D701ED91AF
:10101000FC910190F081E02DC7011995F3CF642F69
:101020000E945F07C801DF91CF911F910F91FF9040
:10103000EF90DF90CF900895CF93DF931F92CDB7BD
:10104000DEB769832091F0032223F9F020911B047D
:10105000203258F021E030E0FC013383228390E01D
:1010600080E00F90DF91CF91089580911C04E82FCC
:10107000F0E0EF50FC4F998190838F5F80931C04C8
:1010800080931B0481E090E0ECCF61E0CE010196FB
:101090000E945F07F7CFCF92DF92EF92FF920F93FC
:1010A0001F93CF93DF93FC01C48121E02093F003D1
:1010B000C093110410921C0410921B048385682BAA
:1010C00084ED94E00E941C08D0911B04D13208F0FA
:1010D00092C00E9407076B017C018091EA03811195
:1010E00065C082E08093EA0381E08093E9038FEF9B
:1010F0008093E8031092E703D093E603A1EFB3E0F7
:10110000E6ECF3E080E0D81385C01092C50380912F
:10111000C503CC0FC82BC093C5038091C403813095
:1011200009F07CC01092C4030E9407076B017C0188
:101130008091C5038093BB008091EC039091ED03F7
:10114000A091EE03B091EF03892B8A2B8B2B99F0A2
:101150000E9407070091EC031091ED032091EE032C
:101160003091EF036C197D098E099F090617170747
:1011700028073907E0F18091BC0083FDD9CF85ECC9
:101180008093BC000E9407076B017C018091EA03F9
:10119000823009F445C08091E8038F3F61F180916E
:1011A000E803803241F18091E80325C08091EC038F
:1011B0009091ED03A091EE03B091EF03892B8A2B60
:1011C0008B2B09F48ACF0E9407070091EC03109142
:1011D000ED032091EE033091EF036C197D098E0928
:1011E0009F09061717072807390708F076CF80915F
:1011F000EB030E94A40710921C0410921B0410928F
:10120000F003DF91CF911F910F91FF90EF90DF904E
:10121000CF9008959D9191938F5F75CF85EEB0CF5C
:101220008091EC039091ED03A091EE03B091EF0358
:10123000892B8A2B8B2B09F4A9CF0E9407070091D9
:10124000EC031091ED032091EE033091EF036C1944
:101250007D098E099F09061717072807390708F027
:1012600095CFC5CF90E080E00895AF92BF92CF9226
:10127000DF92EF92FF920F931F93CF93DF936B0157
:101280007A01EC01C45ADC4F28813CE0389F800190
:10129000399F100D1124A0907005B12C27FF1FC09D
:1012A000FB011182108288818F5F88838881980179
:1012B000280F311D87FD3A95F6012A153B051CF4D0
:1012C00088818C30C4F180819181049680349C495E
:1012D00008F473C0F60180819181049670C0888102
:1012E0009801280F311D87FD3A952A153B05DCF63C
:1012F0008881A801480F511D87FD5A95FA01EE0F0C
:10130000FF1FE40FF51FE052FB4F808186FFCBCF1C
:101310008881F801E80FF11D87FDFA95CF01EE0FE6
:10132000FF1FE80FF91FE052FB4F808160E08F73D1
:101330000E947E04B8CF808191812881A801420F4C
:10134000511D27FD5A959A01FA01EE0FFF1FE20F7A
:10135000F31FE052FB4F21813281820F931FF7016F
:101360009183808388819801280F311D87FD3A95EC
:10137000F901EE0FFF1FE20FF31FE052FB4F8081D8
:1013800086FF22C08881080F111D87FD1A95F8017C
:10139000EE0FFF1FE00FF11FE052FB4F808161E075
:1013A0008F73DF91CF911F910F91FF90EF90DF909E
:1013B000CF90BF90AF900C947E0480E49CE9F7013D
:1013C000918380838FEF8883DF91CF911F910F915D
:1013D000FF90EF90DF90CF90BF90AF90089560E0C6
:1013E0000C947E0461E00C947E04CF93DF93109202
:1013F0002C0410922B04C0912B04D0912C04C53BDB
:10140000D1057CF4CE010E94A6016FE070E080E07F
:1014100090E00E942C072596D0932C04C0932B04B7
:10142000EACFDF91CF910895CF93DF93EC018881CC
:101430009981009711F00E945818198218821D8214
:101440001C821B821A82DF91CF9108950F931F9304
:10145000CF938C01C62F0E944B086C2F6460C8018B
:101460000E944B086C2F6B7FC8010E944B0883ECD5
:1014700090E00197F1F7CF911F910F9108950F938D
:101480001F93CF93DF938C01D62FC42F607F642BE3
:101490000E94260A80E1D89FB00111246C2BC8015C
:1014A000DF91CF911F910F910C94260A40E061E0EB
:1014B00080EE95E00E943F0A8BE39FE10197F1F7F0
:1014C0000895CF93DF9300D000D01F921F92CDB725
:1014D000DEB798E0EFE1F2E0DE01119601900D92A7
:1014E0009A95E1F79091E805961710F46FEF690F60
:1014F000262F30E0220F331F41E050E04C0F5D1FDC
:10150000240F351FF9016081680F606840E080EEAC
:1015100095E028960FB6F894DEBF0FBECDBFDF91E1
:10152000CF910C943F0A41E00E943F0A81E090E095
:1015300008958CE090E00E94EF098BE090E00E941B
:10154000EF098AE090E00C94EF09FB010190002084
:10155000E9F73197AF01461B570BDC01ED91FC9188
:101560000280F381E02D19948F929F92AF92BF92E7
:101570000F931F93CF93DF93CDB7DEB7A1970FB62D
:10158000F894DEBF0FBECDBF19A2423008F44AE086
:101590008E010F5D1F4F842E912CB12CA12CA50123
:1015A00094010E945816E62FB901CA01EA3004F5E9
:1015B000E05DD801EE938D01232B242B252B79F7A9
:1015C00090E080E0109729F0BD0187E394E00E944D
:1015D000A50AA1960FB6F894DEBF0FBECDBFDF916E
:1015E000CF911F910F91BF90AF909F908F900895D2
:1015F000E95CDFCFBC0180EE95E00C94A50A0F9367
:101600001F93CF93DF93EC0188819981009759F064
:101610002A813B812617370730F081E0DF91CF9197
:101620001F910F9108958B016F5F7F4F0E94E1180A
:10163000009759F0998388831B830A832C813D810D
:10164000232B59F7FC011082E8CF80E0E7CFEF921F
:10165000FF920F931F93CF93DF93EC017B011982CD
:1016600018821B821A821D821C82FB0101900020BD
:10167000E9F731978F01061B170BB8010E94FF0A8B
:10168000811109C0CE01DF91CF911F910F91FF9081
:10169000EF900C94140A1D830C83B7018881998103
:1016A000DF91CF911F910F91FF90EF900C94D4197F
:1016B000EF92FF920F931F93CF93DF938C017B01E7
:1016C000EB0109900020E9F72197C61BD70BBE015B
:1016D0000E94FF0A811109C0C801DF91CF911F91BB
:1016E0000F91FF90EF900C94140AF801D583C483F6
:1016F000B70180819181DF91CF911F910F91FF9070
:10170000EF900C94D41985ED8093BC008091EC038C
:101710009091ED03A091EE03B091EF030796A11D08
:10172000B11D23E0B695A795979587952A95D1F792
:101730002091BC0024FD03C01092EA03089540915B
:10174000EC035091ED036091EE037091EF03452B94
:10175000462B472B69F30097A105B10541F025E31E
:101760002A95F1F700000197A109B109E1CF809115
:10177000EB030C94A4071F920F920FB60F92112443
:101780000BB60F922F933F934F935F936F937F937B
:101790008F939F93AF93BF93EF93FF9387E394E06F
:1017A0000E942B03FF91EF91BF91AF919F918F9179
:1017B0007F916F915F914F913F912F910F900BBE51
:1017C0000F900FBE0F901F9018951F920F920FB69B
:1017D0000F9211240BB60F922F938F939F93EF9339
:1017E000FF93E0914704F09148048081E0914D041B
:1017F000F0914E0482FD1DC09081809150048F5F56
:101800008F7320915104821741F0E0915004F0E071
:10181000E95CFB4F958F80935004FF91EF919F916E
:101820008F912F910F900BBE0F900FBE0F901F90B6
:1018300018958081F2CF1F920F920FB60F9211244C
:101840002F933F938F939F93AF93BF9380913304D4
:1018500090913404A0913504B09136043091120473
:1018600023E0230F2D3758F50196A11DB11D2093BC
:1018700012048093330490933404A0933504B093FE
:1018800036048091130490911404A0911504B09132
:1018900016040196A11DB11D8093130490931404A6
:1018A000A0931504B0931604BF91AF919F918F91AF
:1018B0003F912F910F900FBE0F901F90189526E823
:1018C000230F0296A11DB11DD2CF1F920F920FB60A
:1018D0000F9211240BB60F922F933F934F935F9368
:1018E0006F937F938F939F93AF93BF93EF93FF93E8
:1018F0008091B900887F803609F44DC008F040C05F
:10190000883209F4A9C028F5803109F49DC0C8F4D3
:10191000882309F4FBC0883009F496C0FF91EF9149
:10192000BF91AF919F918F917F916F915F914F91F7
:101930003F912F910F900BBE0F900FBE0F901F90F5
:101940001895883109F488C0803241F78093E80304
:1019500014C0803409F49DC040F48033B9F3883357
:10196000E9F68093E80385ECB0C0803509F485C0C2
:10197000883509F496C0883489F60E94830BCECF4F
:10198000883909F48CC038F5883729F050F4883646
:1019900011F0803719F683E08093EA031092C303B5
:1019A00057C0883809F47BC0803919F0803809F0B5
:1019B000B5CF8091C303803208F071C0E091C303BA
:1019C00081E08E0F8093C3038091BB00F0E0ED5562
:1019D000FC4F80833DC0803B39F0E0F4803A09F44D
:1019E00079C0883A09F09ACF84E08093EA03109294
:1019F000A2031092A103E0911904F0911A04199521
:101A00008091A10381110FC081E08093A103109206
:101A1000810309C0803C09F4A6CF883C09F4A3CF18
:101A2000883B09F07BCFE091A20381E08E0F809389
:101A3000A203F0E0EF57FC4F80818093BB009091B0
:101A4000A2038091A10329C08091C5038093BB00AC
:101A500085EC8093BC0062CF9091E7038091E60310
:101A6000981758F5E091E70381E08E0F8093E70324
:101A7000F0E0EA53FC4F8081E9CFE091E70381E099
:101A80008E0F8093E7038091BB00F0E0EA53FC4F98
:101A900080839091E7038091E6039817C8F285E868
:101AA000D8CFE091E70381E08E0F8093E703809128
:101AB000BB00F0E0EA53FC4F80838091E903811181
:101AC0005CCF81E08093C40384EA8093BC001092D1
:101AD000EA0324CF85EC8093BC001092EA03809146
:101AE000C303803230F4E091C303F0E0ED55FC4FC6
:101AF00010826091C30370E0E0911704F091180424
:101B000083EA93E019951092C30308CF1092E8037B
:101B100034CF1F920F920FB60F9211240BB60F9273
:101B20002F933F934F935F936F937F938F939F93E5
:101B3000AF93BF93EF93FF9348E251E064E271E00B
:101B400090E080E00E943509FF91EF91BF91AF9145
:101B50009F918F917F916F915F914F913F912F91C5
:101B60000F900BBE0F900FBE0F901F9018951F92F5
:101B70000F920FB60F9211240BB60F922F933F9333
:101B80004F935F936F937F938F939F93AF93BF9385
:101B9000EF93FF9348EA50E064EA70E083E090E05E
:101BA0000E943509FF91EF91BF91AF919F918F9165
:101BB0007F916F915F914F913F912F910F900BBE4D
:101BC0000F900FBE0F901F9018951F920F920FB697
:101BD0000F9211240BB60F922F933F934F935F9365
:101BE0006F937F938F939F93AF93BF93EF93FF93E5
:101BF00048E950E064E970E082E090E00E94350935
:101C0000FF91EF91BF91AF919F918F917F916F91D4
:101C10005F914F913F912F910F900BBE0F900FBE90
:101C20000F901F9018951F920F920FB60F921124CC
:101C30000BB60F922F933F934F935F936F937F93C6
:101C40008F939F93AF93BF93EF93FF9348E850E038
:101C500064E870E081E090E00E943509FF91EF9127
:101C6000BF91AF919F918F917F916F915F914F91B4
:101C70003F912F910F900BBE0F900FBE0F901F90B2
:101C8000189510923A041092390488EE93E0A0E07F
:101C9000B0E080933B0490933C04A0933D04B09348
:101CA0003E042BE232E0309338042093370425ECD5
:101CB00030E0309344042093430424EC30E030932C
:101CC00046042093450420EC30E0309348042093F0
:101CD000470421EC30E030934A042093490422EC7D
:101CE00030E030934C0420934B0426EC30E03093EA
:101CF0004E0420934D0410925004109251041092FF
:101D00005204109253041092D7041092D604809378
:101D1000D8049093D904A093DA04B093DB048DE344
:101D200092E09093D5048093D40480917005803321
:101D300008F073C091E0980F909370058093EC05C4
:101D400090E0FC01EE0FFF1FE80FF91FE052FB4F80
:101D500088EB9BE0928381831092E3051092E20569
:101D600089E592E09093E1058093E00587E2809316
:101D7000E40584E18093E90584E08093EA0510920C
:101D8000EB0510927305109277051092760510926C
:101D900078058FE492E09093720580937105EDE8E9
:101DA000F5E01082148213821582369685E0E93CB4
:101DB000F807B9F789E092E09093D4058093D305B2
:101DC00086E092E09093D6058093D50584E08093D9
:101DD000D70583E08093D8058DE092E09093D205FB
:101DE0008093D1058AE090E09093DA058093D9053D
:101DF00084EF91E09093DC058093DB051092DF0582
:101E00001092DE051092CD051092CE051092CF05EE
:101E10001092D0051092DD0508958FEF8093EC05A8
:101E20009BCFCF93DF93CDB7DEB72C970FB6F89447
:101E3000DEBF0FBECDBF789484B5826084BD84B50B
:101E4000816084BD85B5826085BD85B5816085BDB5
:101E500080916E00816080936E001092810080916D
:101E600081008260809381008091810081608093F5
:101E70008100809180008160809380008091B1001A
:101E800084608093B1008091B00081608093B00045
:101E90008091910082608093910080919100816097
:101EA0008093910080919000816080939000809158
:101EB000A10082608093A1008091A1008160809345
:101EC000A1008091A00081608093A00080912101F9
:101ED00082608093210180912101816080932101A2
:101EE0008091200181608093200180917A0084603C
:101EF00080937A0080917A00826080937A0080914A
:101F00007A00816080937A0080917A008068809363
:101F10007A001092C100E0914704F091480482E0F9
:101F20008083E0914304F09144041082E0914504E1
:101F3000F09146048FEC808310924F04E0914B04A3
:101F4000F0914C0486E08083E0914904F0914A04CA
:101F5000808180618083E0914904F0914A0480810E
:101F600088608083E0914904F0914A048081806810
:101F70008083E0914904F0914A0480818F7D8083C1
:101F800062E089E30E94700562E08AE30E947005C6
:101F900062E08BE30E94700562E08CE30E947005B2
:101FA00062E08DE30E94700562E087E00E947005A8
:101FB00060E08EE30E94700561E089E00E94700598
:101FC00061E08FE30E94700510921E0410921D04C0
:101FD00010921C0410921B040E94860785EB92E06D
:101FE00090931A048093190486EB92E0909318045E
:101FF000809317041092E5058091EA05823018F06D
:1020000098E09093E5058093E80562E370E080E056
:1020100090E00E942C076091EB0580EE95E00E9415
:102020004B0868EE73E080E090E00E942C0760E3CC
:1020300080EE95E00E94260A0BE416E4C8010197A1
:10204000F1F760E380EE95E00E94260AC80101974F
:10205000F1F760E380EE95E00E94260A83E592E0C6
:102060000197F1F760E280EE95E00E94260A609108
:10207000E505606240E080EE95E00E943F0A84E062
:102080008093E60540E06CE080EE95E00E943F0A18
:102090000E94560A82E08093E70540E066E080EE09
:1020A00095E00E943F0A40E062E080EE95E00E94E9
:1020B0003F0A8BE39FE10197F1F788E08093EB05FE
:1020C00060E080EE95E00E944B0861E08FE30E94A3
:1020D000700561E080E00E94610A81E692E00E9462
:1020E000FA0A62E080E00E94610A85E792E00E94BD
:1020F000FA0A63E086E00E94610A84E892E00E94A6
:10210000FA0A64E670E080E090E00E942C070E94EA
:10211000560A8091EC05803308F052C061E086E0F9
:102120000E9470058091EC05282F30E0F901EE0F38
:10213000FF1FE20FF31FE052FB4F9081907C9660EF
:1021400090831092ED051092EE052CE0622F0E9414
:10215000A817829FB001112430E020E0AB01420FAC
:10216000531FFA01EE0FFF1FE40FF51FE052FB4F64
:10217000908196FD17C02F5F3F4F2C30310571F7CE
:10218000813009F000C11092800082E080938100CC
:102190001092850010928400B19A80916F00826045
:1021A00080936F00E091EC058E2F90E0FC01EE0F24
:1021B000FF1FE80FF91FE052FB4F8081806480838E
:1021C0000E94F50961E08AE00E94700561E08BE001
:1021D0000E94700561E08CE00E9470058CE090E048
:1021E0000E94EF098BE090E00E94EF098AE090E006
:1021F0000E94EF09BB24B39404EB10E080E4A82E06
:1022000080912604882309F4EAC08CE090E00E94C3
:10221000F2098BE090E00E94F2098AE090E00E94CF
:10222000EF0980912504882309F4DCC08CE090E05C
:102230000E94EF098BE090E00E94EF098AE090E0B5
:102240000E94F20980912404882309F4CEC08CE016
:1022500090E00E94F2098BE090E00E94EF098AE092
:1022600090E00E94F20980912304882309F4C0C001
:102270008CE090E00E94EF098BE090E00E94F20970
:102280008AE090E00E94F20980912204882309F4F8
:10229000B2C08CE090E00E94F2098BE090E00E94D6
:1022A000F2098AE090E00E94F20980910502811112
:1022B00036C380917B00886080937B00A0927C0075
:1022C00080917A00806480937A0080917A0086FD04
:1022D000FCCFE0907800F090790063EA72E0CE01E4
:1022E00007960E94270BB701072E000C880B990B4D
:1022F0000E94091520E030E040EA50E40E94681591
:1023000020E030EC4FE754E40E94F61620E030E085
:1023100048EC52E40E9468150E946817072E000CD2
:10232000880B990B0E9409156B017C01C092270450
:10233000D0922804E0922904F0922A0420E030E0B0
:1023400040ED51E40E94021587FF58C061E089E02A
:102350000E94700560E089E00E947E0420E030E089
:1023600048ED51E4C701B6010E94021581119FC1D9
:1023700061E089E00E94700586E690E00E94B0046A
:1023800065E972E04FC0823061F410929000809352
:102390009100109295001092940088BB8093710078
:1023A00001CF833069F41092A00082E08093A100F5
:1023B0001092A5001092A40089BB80937200F2CE07
:1023C0008111F0CE1092200182E0809321011092C1
:1023D0002501109224018ABB80937300E3CE0E94F2
:1023E000990A1FCF0E94990A2DCF0E94990A3BCFCC
:1023F0000E94990A49CF0E94990A57CF20E030E005
:1024000040ED51E4C701B6010E9402158111A6CF2B
:1024100061E089E00E94700583E390E00E94B004CF
:1024200061E972E0CE0107960E94580B809120046A
:10243000811134C260911F0470E090E080E00E943E
:1024400009159B01AC01C701B6010E940215882342
:1024500009F424C2A7019601C701B6010E94A3177F
:1024600066EA72E081111BC026013701E89477F813
:102470002FEF3FEF4FE75FE7C301B2010E94A317C1
:10248000811154C12FEF3FEF4FE75FE7C301B20166
:102490000E94021518160CF049C16AEA72E087E33F
:1024A00094E00E94A50A62EB72E087E394E00E9448
:1024B000A50A20E030E040ED51E4609127047091DE
:1024C00028048091290490912A040E94021587FF14
:1024D000A4C165EB72E087E394E00E94A50A62EB79
:1024E00072E087E394E00E94A50AB0922004609114
:1024F0002704709128048091290490912A040E9455
:102500006F1760931F048F819885009711F00E94C8
:10251000581889E30E94520421E0892B09F420E035
:10252000209326048AE30E94520421E0892B09F4B7
:1025300020E0209325048BE30E94520421E0892BA4
:1025400009F420E0209324048CE30E94520421E04B
:10255000892B09F420E0209323048DE30E94520488
:1025600021E0892B09F420E02093220487E00E94D7
:10257000520421E0892B09F420E0209321048EE30A
:102580000E94520461E080E00E94610A89EC92E0BE
:102590000E94FA0A61E08AE00E94610A8FEC92E0F0
:1025A0000E94FA0A62E080E00E94610A86ED92E0F1
:1025B0000E94FA0A62E08AE00E94610A8CED92E0D1
:1025C0000E94FA0A63E080E00E94610A84EE92E0D1
:1025D0000E94FA0A8091260461E0882309F461C10F
:1025E00086E00E94610A8EEE92E00E94FA0A8091D3
:1025F000250461E0882309F45AC181E10E94610A3F
:102600008EEE92E00E94FA0A8091240463E088230F
:1026100009F453C18BE00E94610A8EEE92E00E94A1
:10262000FA0A8091230462E0882309F44CC181E115
:102630000E94610A8EEE92E00E94FA0A80912204C2
:1026400062E0882309F445C186E00E94610A8EEEAB
:1026500092E00E94FA0A8091210460E0811145C154
:1026600084E00E94610A86EF92E00E94FA0A80915B
:102670002604882309F433C161E08FE30E947E04BD
:102680000E94B005833281F40E94560A0E94F50927
:1026900080E193E00E94FA0A62E370E080E090E05B
:1026A0000E942C07B09205020E94BA03A9CD20E037
:1026B00030E040EE51E4C701B6010E9402158111DD
:1026C0000BC061E089E00E94700589E990E00E94FA
:1026D000B00469E972E0A6CE20E030E048EE51E4B3
:1026E000C701B6010E94021581110BC061E089E0AB
:1026F0000E9470058CEC90E00E94B0046DE972E0DD
:1027000091CE20E030E040EF51E4C701B6010E94D5
:102710009E1787FD8BCE61E089E00E94700561E025
:1027200089E00E947E0461EA72E07CCE2FEF3FEFE9
:102730004FE75FE4C701B6010E949E1718161CF40C
:102740006EEA72E0ACCE2FEF3FEF4FE75FECC701D0
:10275000B6010E94021587FDF3CF20E030E0A90109
:10276000C701B6010E94021587FF09C06DE287E329
:1027700094E00E944D03F7FAF094F7F8F0942AE001
:1027800037ED43EA5BE3C701B6010E948A162B01CD
:102790003C010E946F176B017C010E9407159B0191
:1027A000AC01C301B2010E9489162B013C014AE031
:1027B000C701B6010E94B40A6EE287E394E00E946A
:1027C0004D0320E030E040E251E4C301B2010E9439
:1027D00068152B013C010E946F176B01F12CE12C55
:1027E0004AE0C701B6010E94B40AC701B6010E94BF
:1027F00007159B01AC01C301B2010E94891620E0BC
:1028000030E040E251E40E9468150E946F1790E0AA
:1028100080E04AE00E94B40A46CE6DEB72E0CE0141
:1028200001960E94270BCF80D884C114D10489F16E
:10283000EB84FC84E114F104B1F08D819E81E80EFB
:10284000F91EB701CE0101960E94FF0A882309F103
:1028500029813A818D819E81B601820F931F0E944A
:10286000D419FE82ED824D815E8169817A8187E390
:1028700094E00E94B70262EB72E087E394E00E946A
:10288000A50A89819A81009709F42FCE0E945818D1
:102890002CCECE0101960E94140AE5CF109220049E
:1028A00032CE86E00E94610A82EF92E09ECE81E104
:1028B0000E94610A82EF92E0A5CE8BE00E94610A3D
:1028C00082EF92E0ACCE81E10E94610A82EF92E059
:1028D000B3CE86E00E94610A82EF92E0BACE809188
:1028E00025048111C9CE60E0C8CE84E00E94610A4F
:1028F00082E093E00E94FA0A809126048111BCCE06
:10290000809125048111B8CE809124048111B4CE28
:10291000809123048111B0CE80912204E2CF60E047
:1029200080E00E94610A8DE193E00E94FA0A0E9411
:10293000B0058823C1F0F09032042F2D30E0A901BA
:10294000435D5B4F6A01FA01808361E08F2D0E9435
:10295000610A41E0F601608180EE95E00E943F0A45
:10296000F394F092320480913204843009F09CCECA
:1029700060E072E08DE294E00E94CB19892B81F532
:102980000E94560A10932C0400932B04E0902B0411
:10299000F0902C04F7FC11C0C7010E94A6016FE063
:1029A00070E080E090E00E942C07F5E0EF1AF1085B
:1029B000F0922C04E0922B04E9CF88E393E00E948C
:1029C000FA0A0E94560A1092050280913204E82FFA
:1029D000F0E0E25DFB4F882391F081501292FBCF33
:1029E0000E94560A8FE493E00E94FA0A62E370E0C4
:1029F00080E090E00E942C07B0920502E6CF109292
:102A0000320452CE0E94441508F481E00895E894FF
:102A100009C097FB3EF490958095709561957F4F26
:102A20008F4F9F4F9923A9F0F92F96E9BB279395D4
:102A3000F695879577956795B795F111F8CFFAF4E4
:102A4000BB0F11F460FF1BC06F5F7F4F8F4F9F4F15
:102A500016C0882311F096E911C0772321F09EE873
:102A6000872F762F05C0662371F096E8862F70E0D9
:102A700060E02AF09A95660F771F881FDAF7880FB3
:102A80009695879597F90895990F0008550FAA0B09
:102A9000E0E8FEEF16161706E807F907C0F0121671
:102AA0001306E407F50798F0621B730B840B950B74
:102AB00039F40A2661F0232B242B252B21F40895C9
:102AC0000A2609F4A140A6958FEF811D811D089566
:102AD0000E947B150C94EC150E94DE1538F00E94C4
:102AE000E51520F0952311F00C94D5150C94DB1509
:102AF00011240C9420160E94FD1570F3959FC1F3CC
:102B0000950F50E0551F629FF001729FBB27F00D9B
:102B1000B11D639FAA27F00DB11DAA1F649F6627F0
:102B2000B00DA11D661F829F2227B00DA11D621F3F
:102B3000739FB00DA11D621F839FA00D611D221FF9
:102B4000749F3327A00D611D231F849F600D211DDD
:102B5000822F762F6A2F11249F5750409AF0F1F060
:102B600088234AF0EE0FFF1FBB1F661F771F881FC9
:102B700091505040A9F79E3F510580F00C94D51517
:102B80000C9420165F3FE4F3983ED4F38695779536
:102B90006795B795F795E7959F5FC1F7FE2B880F6F
:102BA000911D9695879597F9089597F99F6780E805
:102BB00070E060E008959FEF80EC089500240A948F
:102BC0001616170618060906089500240A94121608
:102BD0001306140605060895092E0394000C11F43B
:102BE000882352F0BB0F40F4BF2B11F460FF04C0E8
:102BF0006F5F7F4F8F4F9F4F089557FD9058440F41
:102C0000551F59F05F3F71F04795880F97FB991F4B
:102C100061F09F3F79F08795089512161306140608
:102C2000551FF2CF4695F1DF08C016161706180695
:102C3000991FF1CF86957105610508940895E89470
:102C4000BB2766277727CB0197F90895052E97FBB9
:102C50001EF400940E943D1657FD07D00E9458169E
:102C600007FC03D04EF40C943D16509540953095DA
:102C700021953F4F4F4F5F4F0895909580957095E8
:102C800061957F4F8F4F9F4F08950E947A16A59FA1
:102C9000900DB49F900DA49F800D911D1124089557
:102CA000B7FF0C9445160E944516821B930B08959E
:102CB000A1E21A2EAA1BBB1BFD010DC0AA1FBB1F40
:102CC000EE1FFF1FA217B307E407F50720F0A21BB2
:102CD000B30BE40BF50B661F771F881F991F1A941F
:102CE00069F760957095809590959B01AC01BD0149
:102CF000CF010895A29FB001B39FC001A39F700DA3
:102D0000811D1124911DB29F700D811D1124911DF3
:102D100008955058BB27AA270E94A1160C94EC15C1
:102D20000E94DE1538F00E94E51520F039F49F3F2F
:102D300019F426F40C94DB150EF4E095E7FB0C94E3
:102D4000D515E92F0E94FD1558F3BA1762077307CE
:102D50008407950720F079F4A6F50C941F160EF45D
:102D6000E0950B2EBA2FA02D0B01B90190010C019B
:102D7000CA01A0011124FF27591B99F0593F50F4B3
:102D8000503E68F11A16F040A22F232F342F44270B
:102D9000585FF3CF469537952795A795F040539503
:102DA000C9F77EF41F16BA0B620B730B840BBAF0D3
:102DB0009150A1F0FF0FBB1F661F771F881FC2F73E
:102DC0000EC0BA0F621F731F841F48F48795779552
:102DD0006795B795F7959E3F08F0B0CF9395880F0C
:102DE00008F09927EE0F9795879508950E940A1786
:102DF0000C94EC150E94E51558F00E94DE1540F089
:102E000029F45F3F29F00C94D51551110C9420162C
:102E10000C94DB150E94FD1568F39923B1F355233B
:102E200091F3951B550BBB27AA27621773078407DD
:102E300038F09F5F5F4F220F331F441FAA1FA9F373
:102E400035D00E2E3AF0E0E832D091505040E69561
:102E5000001CCAF72BD0FE2F29D0660F771F881FC2
:102E6000BB1F261737074807AB07B0E809F0BB0BB5
:102E7000802DBF01FF2793585F4F3AF09E3F5105C9
:102E800078F00C94D5150C9420165F3FE4F3983E2F
:102E9000D4F3869577956795B795F7959F5FC9F7B2
:102EA000880F911D9695879597F90895E1E0660F33
:102EB000771F881FBB1F621773078407BA0720F0AC
:102EC000621B730B840BBA0BEE1F88F7E095089515
:102ED0000E946F176894B1110C94201608950E94F7
:102EE000051688F09F5798F0B92F9927B751B0F081
:102EF000E1F0660F771F881F991F1AF0BA95C9F77E
:102F000014C0B13091F00E941F16B1E008950C94E6
:102F10001F16672F782F8827B85F39F0B93FCCF399
:102F2000869577956795B395D9F73EF490958095FA
:102F3000709561957F4F8F4F9F4F08950E94441564
:102F400008F48FEF08950E944415880B990B08959B
:102F5000991B79E004C0991F961708F0961B881FEB
:102F60007A95C9F780950895EE0FFF1F881F8BBFD4
:102F70000790F691E02D19940F931F93CF93DF9351
:102F80008230910510F482E090E0E091F105F0913B
:102F9000F20530E020E0B0E0A0E0309799F4211590
:102FA000310509F44AC0281B390B24303105D8F506
:102FB0008A819B816115710589F1FB01938382836D
:102FC000FE0111C0408151810281138148175907C8
:102FD000E0F04817590799F4109761F012960C9396
:102FE000129713961C933296CF01DF91CF911F91C8
:102FF0000F9108950093F1051093F205F4CF211578
:10300000310551F04217530738F0A901DB019A014D
:10301000BD01DF01F801C1CFEF01F9CF9093F205B7
:103020008093F105CDCFFE01E20FF31F81939193C1
:103030002250310939832883D7CF2091EF05309171
:10304000F005232B41F420911B0230911C02309398
:10305000F0052093EF052091190230911A022115F5
:10306000310541F42DB73EB740911D0250911E022B
:10307000241B350BE091EF05F091F005E217F30703
:10308000A0F42E1B3F0B2817390778F0AC014E5FD8
:103090005F4F2417350748F04E0F5F1F5093F00520
:1030A0004093EF05819391939FCFF0E0E0E09CCFB8
:1030B000CF93DF930097E9F0FC01329713821282DD
:1030C000A091F105B091F205ED0130E020E01097FC
:1030D000A1F420813181820F931F2091EF0530915F
:1030E000F0052817390709F061C0F093F005E09367
:1030F000EF05DF91CF910895EA01CE17DF07E8F5DC
:103100004A815B819E0141155105B1F7E901FB83BD
:10311000EA8349915991C40FD51FEC17FD0761F45B
:10312000808191810296840F951FE901998388839C
:10313000828193819B838A83F0E0E0E012968D91F7
:103140009C9113970097B9F52D913C911197CD0162
:103150000296820F931F2091EF053091F0052817FA
:10316000390739F6309751F51092F2051092F105B2
:10317000B093F005A093EF05BCCFD383C283408109
:103180005181840F951FC817D90761F44E5F5F4FB7
:1031900088819981480F591F518340838A819B817F
:1031A000938382832115310509F0B0CFF093F205A6
:1031B000E093F1059ECFFD01DC01C0CF13821282A6
:1031C000D7CF4F925F926F927F928F929F92AF92E2
:1031D000BF92CF92DF92EF92FF920F931F93CF9304
:1031E000DF938C01009799F4CB01DF91CF911F9170
:1031F0000F91FF90EF90DF90CF90BF90AF909F9096
:103200008F907F906F905F904F900C94BC17FC0153
:10321000E60FF71F9C0122503109E217F30708F46B
:10322000AEC0D901CD91DC911197C617D70720F117
:10323000C530D10578F0CE0104978617970750F076
:10324000C61BD70B2297C193D1936D937C93CF016B
:103250000E945818C801DF91CF911F910F91FF90E4
:10326000EF90DF90CF90BF90AF909F908F907F9026
:103270006F905F904F9008955B01AC1ABD0A4C01AE
:103280008C0E9D1EA091F105B091F205512C412CA0
:10329000F12CE12C109731F58091EF059091F0051C
:1032A0008815990509F05CC04616570608F058C005
:1032B0008091190290911A02009741F48DB79EB740
:1032C00040911D0250911E02841B950BE817F907CF
:1032D00008F055C0F093F005E093EF05F901718314
:1032E0006083B8CF8D919C91119712966C90129734
:1032F00013967C901397A815B90559F56C0142E017
:10330000C40ED11CCA14DB0420F1AC014A195B09BC
:10331000DA011296159780F062827382518340839E
:10332000D9016D937C93E114F10471F0D7011396E8
:10333000FC93EE9312978ECF22968C0F9D1FF9016E
:1033400091838083F301EFCFF093F205E093F105D1
:1033500081CF4816590608F42C017D01D3019ACF7C
:10336000CB010E94BC177C01009749F0AE01B80167
:103370000E94C219C8010E94581887016BCF10E043
:1033800000E068CFFB01DC0102C001900D924150CA
:103390005040D8F70895FB01DC018D910190801910
:1033A0000110D9F3990B0895FB01DC0101900D92F6
:1033B0000020E1F70895F894FFCF31323334000153
:1033C000020304383736083132333435363738396A
:1033D0002A30230000F30580000000400014005450
:1033E00000000000004D03B702E4029A031503F346
:1033F000020703000000001C08EF073209C507E8B8
:1034000007D507C60700000000AC05AC047B04002C
:10341000000000930AB70232095E0753595354451E
:103420004D452044452053454355524954450020BD
:10343000494E54454C4C4947454E54452000415255
:103440004455494E4F204D45474100323025003408
:103450003025003630250038302500313030250049
:103460006E616E00696E66006F7666000D0A00463A
:10347000616E204F46460046616E2053706565645C
:103480003A2000466972653A00536D6F6B653A00E9
:10349000446F6F723A0057696E646F773A00496EF5
:1034A0007472756465723A00596573004E6F20003E
:1034B0004D6F6465204E6F726D616C004D6F646579
:1034C00020536563757269736500506F727465206F
:1034D0006665726D65720020456E74726572207645
:1034E0006F747265206D6F742064652070617373F2
:1034F00065006C6120706F7274652063276573745A
:10350000206F75766572746500204D647020657259
:06351000726F6E6572008F
:020000040003F7
:10E000000D9489F10D94B2F10D94B2F10D94B2F129
:10E010000D94B2F10D94B2F10D94B2F10D94B2F1F0
:10E020000D94B2F10D94B2F10D94B2F10D94B2F1E0
:10E030000D94B2F10D94B2F10D94B2F10D94B2F1D0
:10E040000D94B2F10D94B2F10D94B2F10D94B2F1C0
:10E050000D94B2F10D94B2F10D94B2F10D94B2F1B0
:10E060000D94B2F10D94B2F10D94B2F10D94B2F1A0
:10E070000D94B2F10D94B2F10D94B2F10D94B2F190
:10E080000D94B2F10D94B2F10D94B2F10D94B2F180
:10E090000D94B2F10D94B2F10D94B2F10D94B2F170
:10E0A0000D94B2F10D94B2F10D94B2F10D94B2F160
:10E0B0000D94B2F10D94B2F10D94B2F10D94B2F150
:10E0C0000D94B2F10D94B2F10D94B2F10D94B2F140
:10E0D0000D94B2F10D94B2F10D94B2F10D94B2F130
:10E0E0000D94B2F141546D656761323536300041AF
:10E0F000726475696E6F206578706C6F72657220DE
:10E1000073746B3530305632206279204D4C530099
:10E11000426F6F746C6F616465723E004875683F52
:10E1200000436F6D70696C6564206F6E203D200048
:10E130004350552054797065202020203D20005FF9
:10E140005F4156525F415243485F5F3D2000415658
:10E1500052204C696243205665723D20004743437C
:10E160002056657273696F6E203D20004350552024
:10E1700049442020202020203D20004C6F7720663D
:10E18000757365202020203D20004869676820665F
:10E190007573652020203D200045787420667573D6
:10E1A00065202020203D20004C6F636B2066757336
:10E1B000652020203D20004D617220203720323024
:10E1C000313300312E362E3800342E332E350056A2
:10E1D00023202020414444522020206F7020636F70
:10E1E00064652020202020696E73747275637469E1
:10E1F0006F6E2061646472202020496E74657272B3
:10E20000757074006E6F20766563746F7200726A49
:10E210006D702020006A6D70200057686174207056
:10E220006F72743A00506F7274206E6F7420737541
:10E2300070706F72746564004D7573742062652030
:10E2400061206C6574746572002000577269747483
:10E25000696E672045450052656164696E672045B7
:10E26000450045452065727220636E743D00504F35
:10E27000525400303D5A65726F2061646472003FF1
:10E280003D43505520737461747300403D454550C3
:10E29000524F4D207465737400423D426C696E6B41
:10E2A000204C454400453D44756D70204545505215
:10E2B0004F4D00463D44756D7020464C415348001B
:10E2C000483D48656C70004C3D4C69737420492F83
:10E2D0004F20506F72747300513D51756974005234
:10E2E0003D44756D702052414D00563D73686F7707
:10E2F00020696E7465727275707420566563746FF0
:10E30000727300593D506F727420626C696E6B00BD
:10E310002A0011241FBECFEFD1E2DEBFCDBF01E046
:10E320000CBF12E0A0E0B2E0EEE1FDEF03E00BBFB6
:10E3300002C007900D92A030B107D9F712E0A0E01B
:10E34000B2E001C01D92AE30B107E1F70F9460F367
:10E350000D948DFE01E20EBF0FEF0DBF11241FBE05
:10E360000D9460F30D9400F020E030E040ED57E0B4
:10E3700005C0FA013197F1F72F5F3F4F2817390792
:10E38000C0F308959C01260F311DC901A0E0B0E043
:10E390002F5F3F4FABBFFC018791882361F08093D3
:10E3A000C6008091C00086FFFCCF8091C0008064D1
:10E3B0008093C000EACF08958DE08093C6008091DD
:10E3C000C00086FFFCCF8091C00080648093C000B5
:10E3D0008AE08093C6008091C00086FFFCCF8091C8
:10E3E000C00080648093C00008950F94C2F10F9420
:10E3F000DCF10895FC019081992359F09093C600B7
:10E400008091C00086FFFCCF8091C0008064809323
:10E41000C0003196992379F70895282F982F929567
:10E420009F70892F805D8A3308F0895F8093C600D2
:10E430008091C00086FFFCCF8091C00080648093F3
:10E44000C000822F8F70982F905D9A3308F0995FEB
:10E450009093C6008091C00086FFFCCF8091C000E1
:10E4600080648093C00008959C01FB01853691056E
:10E470001CF46330710594F0C90164E670E00F94F8
:10E480002EFE605D7F4F6093C6008091C00086FFC6
:10E49000FCCF8091C00080648093C0002B30310598
:10E4A00014F43297B4F0C90164E670E00F942EFEC4
:10E4B0006AE070E00F942EFE605D7F4F6093C600AF
:10E4C0008091C00086FFFCCF8091C0008064809363
:10E4D000C000C9016AE070E00F942EFEC0968093E0
:10E4E000C6008091C00086FFFCCF8091C000806490
:10E4F0008093C00008951F93182F8EE692EE60E07F
:10E500000F94C2F11093C6008091C00086FFFCCF2B
:10E510008091C00080648093C0000F94DCF11F9153
:10E5200008952F923F924F925F926F927F928F92B7
:10E530009F92AF92BF92CF92DF92EF92FF920F9392
:10E540001F93DF93CF93CDB7DEB762970FB6F894E2
:10E55000DEBF0FBECDBF382E622ECA01DB015C01CB
:10E560006D01772420E2222E2E010894411C511CBB
:10E570008BC081E0A81680E0B80681E0C80680E084
:10E58000D80628F0C601AA27BB270F940DF2BB2797
:10E59000AD2D9C2D8B2D0F940DF28A2D0F940DF225
:10E5A0002092C6008091C00086FFFCCF8091C00001
:10E5B00080648093C0009DE29093C6008091C0006B
:10E5C00086FFFCCF8091C00080648093C0002092C1
:10E5D000C6008091C00086FFFCCF8091C00080649F
:10E5E0008093C00019828601750188249924A1E0D6
:10E5F0003A1651F03A1620F0B2E03B1661F409C029
:10E600000BBFF701779007C0C7010F9477FE782EF4
:10E6100002C0F7017080872D0F940DF22092C60082
:10E620008091C00086FFFCCF8091C0008064809301
:10E63000C000872D8052F401EF70F0708F3520F408
:10E64000E40DF51D708204C0E40DF51D8EE280839B
:10E650000894E11CF11C011D111D0894811C911CE2
:10E6600090E18916910409F0C2CF80E190E0A0E02A
:10E67000B0E0A80EB91ECA1EDB1E198AC2010F9493
:10E68000FAF10F94DCF16A94662009F072CF629679
:10E690000FB6F894DEBF0FBECDBFCF91DF911F91B3
:10E6A0000F91FF90EF90DF90CF90BF90AF909F9031
:10E6B0008F907F906F905F904F903F902F90089534
:10E6C0002F923F924F925F926F927F928F929F9282
:10E6D000AF92BF92CF92DF92EF92FF920F931F9370
:10E6E000DF93CF93CDB7DEB7CD53D1400FB6F894BB
:10E6F000DEBF0FBECDBF01E20EBF0FEF0DBF94B75F
:10E70000F894A89514BE80916000886180936000A1
:10E7100010926000789493FF05C0E0910002F091A0
:10E7200001021995279A2F9A8091C00082608093E8
:10E73000C00080E18093C40088E18093C1000000A4
:10E74000EE24FF24870144E0A42EB12CCC24DD2448
:10E7500024C0C5010197F1F70894E11CF11C011DCB
:10E76000111D21E2E2162EE4F20620E0020720E06D
:10E77000120718F031E0C32ED12CC801B70127ECE5
:10E780003BE140E050E00F9441FE611571058105C9
:10E79000910519F485B1805885B98091C00087FD35
:10E7A00003C0C114D104A9F2A6014F5F5F4FC25E3E
:10E7B000DE4F59834883CE51D140C25EDE4F8881FF
:10E7C0009981CE51D140019711F00D9410FEC05D9A
:10E7D000DE4F19821882C053D14060E0C15DDE4F28
:10E7E0001882CF52D14088249924C35DDE4F19820C
:10E7F0001882CD52D140C05EDE4F188219821A8233
:10E800001B82C052D140CE5CDE4F188219821A8220
:10E810001B82C253D140EE24FF2487010BBFF701B6
:10E8200007911691C45CDE4F19830883CC53D14005
:10E830000D940BFEC25EDE4F28813981CE51D1404E
:10E840002130310509F52091C600C25EDE4F1982E4
:10E850001882CE51D14022C02F5F3F4F4F4F5F4FA4
:10E86000213082E138078AE7480780E0580780F0C6
:10E87000C45CDE4FE881F981CC53D140EF5FFF4F9C
:10E8800019F0EE27FF27099420E030E040E050E047
:10E890008091C00087FFE0CF2091C600C35DDE4FAE
:10E8A00048815981CD52D1404F5F5F4FC35DDE4FEC
:10E8B00059834883CD52D140213209F063C64A3092
:10E8C000510508F05FC60894811C911C53E0851621
:10E8D000910409F059C600E010E018C081E280936D
:10E8E000C6008091C00086FFFCCF8091C00080648C
:10E8F0008093C0002F5F3F4F2931310579F70F9486
:10E90000DCF10F5F1F4F0530110519F020E030E0FA
:10E91000E5CF10920A0210920B0210920C02109294
:10E920000D02109206021092070210920802109235
:10E930000902109202021092030210920402109235
:10E9400005028FEE90EE60E00F94F5F180E191EE1C
:10E9500060E00F94C2F18091C00087FFFCCF9091DE
:10E96000C600903608F09F759032B8F09093C600BC
:10E970008091C00086FFFCCF8091C00080648093AE
:10E98000C000A0E2A093C6008091C00086FFFCCF2B
:10E990008091C00080648093C000983409F4D7C18E
:10E9A0009934B8F4923409F459C1933458F490333B
:10E9B00019F1903308F4E3C59F33A1F1903409F0C5
:10E9C000DEC5BDC0953409F470C1963409F0D7C5D1
:10E9D00098C1923509F42BC2933538F49C3409F46C
:10E9E000F5C1913509F0CBC518C2963509F445C279
:10E9F000993509F0C4C567C483E792EE62E00F94CD
:10EA0000F5F110920602109207021092080210927D
:10EA1000090210920A0210920B0210920C0210923C
:10EA20000D0213C18FE792EE62E00F94F5F18FEEC5
:10EA300090EE60E00F94F5F181E291EE60E00F94CA
:10EA4000C2F187EB91EE60E00F94F5F180E391EE77
:10EA500060E00F94C2F184EE90EE60E00F94F5F167
:10EA60008FE391EE60E00F94C2F186E090E061E008
:10EA700070E00F9434F20F94DCF18DE591EE60E0DC
:10EA80000F94C2F189EC91EE60E00F94F5F18EE401
:10EA900091EE60E00F94C2F183EC91EE60E00F9490
:10EAA000F5F18CE691EE60E00F94C2F18EE10F94E7
:10EAB0000DF288E90F940DF281E00F940DF20F949E
:10EAC000DCF18BE791EE60E00F94C2F119E0E0E039
:10EAD000F0E010935700E4918E2F0F940DF20F94F5
:10EAE000DCF18AE891EE60E00F94C2F1E3E0F0E03F
:10EAF00010935700E4918E2F0F940DF20F94DCF1D8
:10EB000089E991EE60E00F94C2F1E2E0F0E0109349
:10EB10005700E4918E2F0F940DF20F94DCF188EAE8
:10EB200091EE60E00F94C2F1E1E0F0E01093570045
:10EB30001491812F0F940DF20F94DCF107CF8BE825
:10EB400092EE62E00F94F5F18BE492EE60E00F94A8
:10EB5000F5F10F94DCF100E010E019C0C8016F2D51
:10EB60000F947FFEFF2031F489E492EE60E00F9471
:10EB7000C2F10BC0F092C6008091C00086FFFCCFAE
:10EB80008091C00080648093C0000F5F1F4FC80158
:10EB900081519F41A0E0B0E0ABBFFC01F790BAE229
:10EBA000FB1621F0E2E000301E07C1F60F94DCF105
:10EBB0000F94DCF187E592EE60E00F94F5F10F948D
:10EBC000DCF1CC24DD2400E010E01EC0C8010F946D
:10EBD00077FEF82E882331F489E492EE60E00F94FA
:10EBE000C2F10BC08093C6008091C00086FFFCCFAD
:10EBF0008091C00080648093C000FE1419F00894D6
:10EC0000C11CD11C0F5F1F4FC80181519F41A0E063
:10EC1000B0E0ABBFFC01E790FAE2EF1621F022E092
:10EC20000030120799F60F94DCF10F94DCF182E6C4
:10EC300092EE60E00F94C2F1C60161E070E00F94C3
:10EC400034F20F94DCF10F94DCF110920202109276
:10EC50000302109204021092050278CE89E992EE26
:10EC600062E00F94F5F1279A2F9A16C02F9880E052
:10EC700090E0E0EDF7E03197F1F7019684369105E9
:10EC8000C1F72F9A80E090E0E0EDF7E03197F1F7DF
:10EC9000019684369105C1F78091C00087FFE6CFC9
:10ECA0008091C00087FFFCCF64C485EA92EE62E0E9
:10ECB0000F94F5F140910202509103026091040219
:10ECC0007091050281E020E10F9491F2809102029F
:10ECD00090910302A0910402B091050280509F4FD1
:10ECE000AF4FBF4F8093020290930302A0930402A0
:10ECF000B093050280509041A040B04008F426CE69
:10ED0000A4CF83EB92EE62E00F94F5F140910602FE
:10ED100050910702609108027091090280E020E1A1
:10ED20000F9491F28091060290910702A09108023F
:10ED3000B091090280509F4FAF4FBF4F80930602A2
:10ED400090930702A0930802B0930902FFCD80ECD4
:10ED500092EE62E00F94F5F183E792EE60E00F949B
:10ED6000F5F18FE792EE60E00F94F5F18BE892EE0B
:10ED700060E00F94F5F189E992EE60E00F94F5F10F
:10ED800085EA92EE60E00F94F5F183EB92EE60E09D
:10ED90000F94F5F180EC92EE60E00F94F5F187ECC2
:10EDA00092EE60E00F94F5F188ED92EE60E00F9442
:10EDB000F5F18FED92EE60E00F94F5F18AEE92EEB0
:10EDC00060E00F94F5F183E093EEBDCD87EC92EE19
:10EDD00062E00F94F5F181E40F947BF282E40F94EA
:10EDE0007BF283E40F947BF284E40F947BF285E45E
:10EDF0000F947BF286E40F947BF287E40F947BF20E
:10EE000088E40F947BF28AE40F947BF28BE40F94F6
:10EE10007BF28CE40F947BF299CD88ED92EE62E068
:10EE20000F94F5F1772473948824992409C48FED05
:10EE300092EE62E00F94F5F140910A0250910B02BC
:10EE400060910C0270910D0282E020E10F9491F22A
:10EE500080910A0290910B02A0910C02B0910D02D8
:10EE600080509F4FAF4FBF4F80930A0290930B0289
:10EE7000A0930C02B0930D0269CD8AEE92EE62E08F
:10EE80000F94F5F184EE90EE60E00F94F5F18FECC5
:10EE900091EE60E00F94F5F1662477244301CC5D98
:10EEA000DE4F19821882C452D140D401C301B695F5
:10EEB000A79597958795CA5DDE4F88839983AA8326
:10EEC000BB83C652D140CC5DDE4FA881B981C4520C
:10EED000D1401196CC5DDE4FB983A883C452D14096
:10EEE000CD0162E070E00F9434F2B0E2B093C6005E
:10EEF0008091C00086FFFCCF8091C0008064809329
:10EF0000C000EDE2E093C6008091C00086FFFCCF18
:10EF10008091C00080648093C000F0E2F093C6004E
:10EF20008091C00086FFFCCF8091C00080648093F8
:10EF3000C000CA5DDE4FE880F9800A811B81C6529D
:10EF4000D140BB27A12F902F8F2D0F940DF2CA5DBA
:10EF5000DE4F8881C652D1400F940DF2B0E2FB2EF5
:10EF6000F092C6008091C00086FFFCCF8091C00067
:10EF700080648093C0000DE30093C6008091C000C0
:10EF800086FFFCCF8091C00080648093C00010E2B7
:10EF90001093C6008091C00086FFFCCF8091C00016
:10EFA00080648093C0008BBEF3012791C65DDE4F65
:10EFB0002883CA52D140A22EBB24CC24DD2408943D
:10EFC000611C711C811C911C8BBEF3018791282E42
:10EFD0003324442455240894611C711C811C911C09
:10EFE0008BBEF3013791C55DDE4F3883CB52D140E4
:10EFF0000894611C711C811C911C8BBEF30147910C
:10F00000C45DDE4F4883CC52D140ADEFEA2EAFEF66
:10F01000FA2EAFEF0A2FAFEF1A2F6E0C7F1C801E57
:10F02000911E142D032DF22CEE24EA0CFB1C0C1D5A
:10F030001D1D0F940DF220E22093C6008091C000A8
:10F0400086FFFCCF8091C00080648093C000C65DC5
:10F05000DE4F8881CA52D1400F940DF230E23093D6
:10F06000C6008091C00086FFFCCF8091C000806404
:10F070008093C000C45DDE4F8881CC52D1400F9494
:10F080000DF240E24093C6008091C00086FFFCCFA5
:10F090008091C00080648093C000C55DDE4F888190
:10F0A000CB52D1400F940DF250E25093C6008091A4
:10F0B000C00086FFFCCF8091C00080648093C000B8
:10F0C0008FEFE8168FEFF80680E0080780E018075A
:10F0D00031F484E092EE60E00F94C2F1DFC0D80119
:10F0E000C7018070907CA070B0708050904CA040A0
:10F0F000B040D1F52FEF3FE340E050E0E222F322B1
:10F1000004231523CA5DDE4FA880B980CA80DB8046
:10F11000C652D140AE0CBF1CC01ED11EAA0CBB1CD7
:10F12000CC1CDD1C8EE092EE60E00F94C2F1BB2798
:10F13000A12F902F8F2D0F940DF28E2D0F940DF285
:10F1400030E23093C6008091C00086FFFCCF8091F2
:10F15000C00080648093C0004EE34093C60080915D
:10F16000C00086FFFCCF87C08EE09EEFA0E0B0E03D
:10F17000E822F9220A231B239CE0E91694E9F90608
:10F1800090E0090790E0190709F088C0C45DDE4FE0
:10F19000A881CC52D140EA2EFF2400E010E0102FCD
:10F1A0000F2DFE2CEE24C55DDE4FB881CB52D14031
:10F1B000EB0EF11C011D111DD601C501817090706F
:10F1C000A070B070DC0199278827E80EF91E0A1F8D
:10F1D0001B1F20EF30E040E050E0A222B322C42207
:10F1E000D52241E1AA0CBB1CCC1CDD1C4A95D1F7F1
:10F1F000EA0CFB1C0C1D1D1D81E090E0A0E0B0E0BE
:10F20000282239224A225B2235E1220C331C441C7D
:10F21000551C3A95D1F7E20CF31C041D151D57013E
:10F220006801AA0CBB1CCC1CDD1C85E192EE60E0E1
:10F230000F94C2F1C801AA27BB270F940DF2BB2778
:10F24000A12F902F8F2D0F940DF28E2D0F940DF274
:10F2500090E29093C6008091C00086FFFCCF809121
:10F26000C00080648093C000AEE3A093C60080918C
:10F27000C00086FFFCCF8091C00080648093C000F6
:10F28000C601AA27BB270F940DF2BB27AD2D9C2DDD
:10F290008B2D0F940DF28A2D0F940DF20F94DCF14B
:10F2A000CC5DDE4FE881F981C452D140F99709F471
:10F2B0004DCBF4E0EF2EF12C012D112D6E0C7F1CA7
:10F2C000801E911EF2CD83E093EE62E00F94F5F183
:10F2D0008AE192EE60E00F94C2F18091C00087FF56
:10F2E000FCCF1091C6001F751093C6008091C0001E
:10F2F00086FFFCCF8091C00080648093C0000F9493
:10F30000DCF1812F81548A3108F036C1163409F4BA
:10F3100095C0173490F4133409F44EC0143430F40B
:10F320001134F1F0123409F01DC130C0143409F465
:10F3300059C0153409F016C16BC01A3409F4C4C0A1
:10F340001B3438F4173409F48FC0183409F00AC19B
:10F35000A1C01B3409F4D2C01C3409F003C1E8C0B9
:10F360008FEF81B90DC082B1809582B980E090E0C5
:10F37000E0EDF7E03197F1F70196883C9105C1F790
:10F380008091C00087FFEFCF12B8EFC08FEF84B934
:10F390000DC085B1809585B980E090E0E0EDF7E0A3
:10F3A0003197F1F70196883C9105C1F78091C00033
:10F3B00087FFEFCF15B8D9C08FEF87B90DC088B1DF
:10F3C000809588B980E090E0E0EDF7E03197F1F7C3
:10F3D0000196883C9105C1F78091C00087FFEFCF6F
:10F3E00018B8C3C08FEF8AB90DC08BB180958BB9A7
:10F3F00080E090E0E0EDF7E03197F1F70196883C8E
:10F400009105C1F78091C00087FFEFCF1BB8ADC059
:10F410008FEF8DB90DC08EB180958EB980E090E0F0
:10F42000E0EDF7E03197F1F70196883C9105C1F7DF
:10F430008091C00087FFEFCF1EB897C08FEF80BBD1
:10F440000DC081B3809581BB80E090E0E0EDF7E0F6
:10F450003197F1F70196883C9105C1F78091C00082
:10F4600087FFEFCF11BA81C08FEF83BB0DC084B38C
:10F47000809584BB80E090E0E0EDF7E03197F1F714
:10F480000196883C9105C1F78091C00087FFEFCFBE
:10F4900014BA6BC08FEF809301010FC080910201FD
:10F4A00080958093020180E090E0E0EDF7E03197F5
:10F4B000F1F70196883C9105C1F78091C00087FF64
:10F4C000EDCF1092020151C08FEF809304010FC065
:10F4D0008091050180958093050180E090E0E0ED4A
:10F4E000F7E03197F1F70196883C9105C1F78091DB
:10F4F000C00087FFEDCF1092050137C08FEF8093DA
:10F5000007010FC08091080180958093080180E079
:10F5100090E0E0EDF7E03197F1F70196883C910536
:10F52000C1F78091C00087FFEDCF109208011DC088
:10F530008FEF80930A010FC080910B01809580931B
:10F540000B0180E090E0E0EDF7E03197F1F70196F4
:10F55000883C9105C1F78091C00087FFEDCF1092E4
:10F560000B0103C085E292EEEEC98091C00087FFD7
:10F57000FCCF8091C600EAC988E392EEE4C98CE131
:10F5800091EEE1C988249924933011F1943028F444
:10F59000913089F09230B8F408C0953061F195301F
:10F5A000F0F0963009F048C043C02B3109F042C951
:10F5B00091E06BE13FC96227C15DDE4F2883CF52E6
:10F5C000D14092E037C9B22FA0E0622793E032C960
:10F5D000822F90E0A82BB92B622794E02BC92E3004
:10F5E00009F039C3622795E0C05DDE4F19821882A9
:10F5F000C053D1401FC9E1E0F0E0EC0FFD1FC05D3A
:10F60000DE4F08811981C053D140E00FF11F2083E4
:10F610000F5F1F4FC05DDE4F19830883C053D14079
:10F6200062270A171B0709F005C9D80196E002C92D
:10F63000261709F010C303C0973009F0FBC87724E0
:10F640009981933109F412C19431C8F4963009F4C8
:10F65000D8C0973050F4923009F406C1933009F4C1
:10F660006DC0913009F059C253C0913109F477C08F
:10F67000923108F0BBC0903109F04FC2F5C098310B
:10F6800009F487C0993150F4953109F4EFC09531F0
:10F6900008F4C6C1963109F040C2C2C19A3109F4DA
:10F6A0006CC09A3108F491C09B3109F45BC09D3164
:10F6B00009F033C29D81903359F48F81882311F46E
:10F6C0009EE11CC0813011F091E018C098E916C08D
:10F6D000892F807591F0903539F4E0E0F0E089E011
:10F6E0008093570094910AC0983539F4E3E0F0E034
:10F6F00089E080935700949101C090E01A821B82A8
:10F700008D818C831D829E831F8227E030E009C299
:10F710001A8288E08B8381E48C8386E58D8382E581
:10F720008E8389E48F8383E5888780E589878FE5E9
:10F730008A8782E38B872BE030E0F3C18A818139AD
:10F7400041F0823941F0803911F48FE005C080E04A
:10F7500003C082E001C08AE01A828B8344C0772410
:10F76000739482C08D81882311F48EE12CC0813086
:10F7700011F081E028C088E926C01A82E1E0F0E0BB
:10F7800089E08093570084918B831C8224E030E0D1
:10F79000C8C18B81803589F48C81883039F4E2E0EE
:10F7A000F0E089E08093570084910DC0E0E0F0E044
:10F7B00089E080935700849106C0E3E0F0E089E09F
:10F7C0008093570084911A82DFCF8D81836C99E0FA
:10F7D000E1E0F0E0082E90935700E89507B600FCB2
:10F7E000FDCF1A821B8223E030E09BC180EC8A832C
:10F7F000CE5CDE4F188219821A821B82C253D1401E
:10F800008EC18A8190E0A0E0B0E0582F44273327D2
:10F8100022278B8190E0A0E0B0E0DC0199278827C7
:10F82000282B392B4A2B5B2B8D8190E0A0E0B0E098
:10F83000282B392B4A2B5B2B8C8190E0A0E0B0E089
:10F84000BA2FA92F982F8827282B392B4A2B5B2BCF
:10F85000220F331F441F551FC05EDE4F288339839C
:10F860004A835B83C052D1401A8259C13A81C95C34
:10F87000DE4F3883C753D140CA5CDE4F1882C6536F
:10F88000D1408B81C82EDD24CA5CDE4F488159816E
:10F89000C653D140C42AD52A933109F082C0CE5C28
:10F8A000DE4F88819981AA81BB81C253D1408050AB
:10F8B000904CA340B04030F583E0CE5CDE4FE88052
:10F8C000F9800A811B81C253D140F70100935B008C
:10F8D00080935700E89507B600FCFDCFCE5CDE4F65
:10F8E000088119812A813B81C253D14000501F4FAA
:10F8F0002F4F3F4FCE5CDE4F088319832A833B8313
:10F90000C253D140C05EDE4F488159816A817B81FC
:10F91000C052D140DE011B9631E08C9111962C91A2
:10F9200011971296C75CDE4F2883C953D140C85C3B
:10F93000DE4F1882C853D14090E0C85CDE4FE881AA
:10F94000F981C853D1408E2B9F2B0C01FA01609393
:10F950005B0030935700E89511244E5F5F4F6F4F67
:10F960007F4F0EEFE02E0FEFF02ECE0CDF1CC114F8
:10F97000D10499F685E0C05EDE4F088119812A81A5
:10F980003B81C052D140F80120935B008093570027
:10F99000E89507B600FCFDCF81E180935700E8951C
:10F9A00035C0C05EDE4F88819981AA81BB81C0527B
:10F9B000D140B695A795979587957C018601ABE0D8
:10F9C000AA2EB12CAC0EBD1E0BC0D5016D915D01F0
:10F9D000C7010F947FFE0894E11CF11C01501040F8
:10F9E0000115110591F7A60160E070E0440F551F65
:10F9F000661F771FC05EDE4FE880F9800A811B8199
:10FA0000C052D1404E0D5F1D601F711F1A82C05E33
:10FA1000DE4F488359836A837B83C052D1407FC0C5
:10FA2000FA80C55CDE4FF882CB53D140C65CDE4F16
:10FA30001882CA53D1408B81C82EDD24C65CDE4FAC
:10FA400008811981CA53D140C02AD12A1A828981DA
:10FA5000BE016D5F7F4F843121F59601C05EDE4FA0
:10FA6000E880F9800A811B81C052D1400BBFF701A9
:10FA700087919691DB018C9311969C936E5F7F4FDB
:10FA8000D801C7010296A11DB11DC05EDE4F88835B
:10FA90009983AA83BB83C052D14022503040F1F6F3
:10FAA00036C0C05EDE4F288139814A815B81C052F9
:10FAB000D1400894C108D108760100E010E0089414
:10FAC000C11CD11C0894E11CF11C011D111DE20E8A
:10FAD000F31E041F151F21BDBB27A52F942F832FB5
:10FAE00082BD2F5F3F4F4F4F5F4FF89A80B5DB01CC
:10FAF0008D93BD012E153F054007510761F7C05E8C
:10FB0000DE4F288339834A835B83C052D1409601FC
:10FB10002D5F3F4FFB01108204C080EC8A8322E0FE
:10FB200030E08BE18093C6008091C00086FFFCCF5F
:10FB30008091C00080648093C000C15DDE4FF88179
:10FB4000CF52D140F093C6008091C00086FFFCCF19
:10FB50008091C00080648093C000432F3093C60022
:10FB60008091C00086FFFCCF8091C00080648093AC
:10FB7000C000922F2093C6008091C00086FFFCCF6A
:10FB80008091C00080648093C0008EE08093C600A6
:10FB90008091C00086FFFCCF8091C000806480937C
:10FBA000C00065E1C15DDE4FE880CF52D1406E25D7
:10FBB00069276427FE01319610C090819093C6009A
:10FBC0008091C00086FFFCCF31968091C000806498
:10FBD0008093C0006927215030402115310569F715
:10FBE0006093C6008091C00086FFFCCF8091C0006A
:10FBF00080648093C00085B1805885B9772081F4F6
:10FC0000C15DDE4F0881CF52D1400F5FC15DDE4F35
:10FC10000883CF52D14090E0A0E0B0E00D941AF4F8
:10FC200027982F9880E090E020ED37E0F901319798
:10FC3000F1F7019684369105C9F700008091C00064
:10FC40008D7F8093C00081E180935700E895EE2777
:10FC5000FF270994FFCF90E00D941AF497FB092E2B
:10FC600007260AD077FD04D02ED006D000201AF443
:10FC7000709561957F4F0895F6F7909581959F4F08
:10FC80000895A1E21A2EAA1BBB1BFD010DC0AA1FDD
:10FC9000BB1FEE1FFF1FA217B307E407F50720F0F5
:10FCA000A21BB30BE40BF50B661F771F881F991F70
:10FCB0001A9469F760957095809590959B01AC01B9
:10FCC000BD01CF010895AA1BBB1B51E107C0AA1FAC
:10FCD000BB1FA617B70710F0A61BB70B881F991FED
:10FCE0005A95A9F780959095BC01CD010895F99991
:10FCF000FECF92BD81BDF89A992780B50895262F31
:10FD0000F999FECF1FBA92BD81BD20BD0FB6F89400
:0EFD1000FA9AF99A0FBE01960895F894FFCF63
:00000001FF
